:0B087E00EF1FAC0670011E4C70F6224C
:10080000758901758CEEE4F58AD28C308DFDC28C31
:03081000C28D2274
:10081300758901758CFE758A0CD28C308DFDC28C66
:03082300C28D2261
:10082600758901758CDF758A73D28C308DFDC28C0B
:03083600C28D224E
:10083900758910758DEEE4F58BD28E308FFDC28EE1
:03084900C28F2239
:10084C00758910758DFE758B0CD28E308FFDC28E16
:03085C00C28F2226
:10085F00758901758DDF758B73D28E308FFDC28ECA
:03086F00C28F2213
:09088900D2A0B2A012083980F9D6
:0300000002087281
:0C087200787FE4F6D8FD75810702088944
:00000001FF
