:0F006A00758920758DFD758BFDD28E759850228E
:080085003099FDC2998F992208
:05008D00C298AF9922AA
:1000560012003D600EAF01120085740129F9E43AE1
:04006600FA80ED220D
:1000030012006A7590FF12008D8F083098FD120060
:100013008DBF7802C29012008DBF7902D290120078
:100023008DBF7A02C29112008DBF7402D291120069
:0A0033008DBF61D7C290C29180D149
:0300000002007982
:0C007900787FE4F6D8FD758108020003D2
:10003D00BB010689828A83E0225002E722BBFE02C1
:09004D00E32289828A83E49322F4
:00000001FF
