:10087E002020202020202020202048454C4C4F2096
:10088E00574F524C44212020202020202020200091
:0808D5008F993099FDC29922B0
:060846008B088A09890AF3
:10084C001208B48E0B8F0CE4FDFCD3ED950CE50B6C
:10085C006480F8EC6480985018AB08AA09A90A8D3A
:10086C00828C83120800FF1208D50DBD00010C808C
:01087C00D9A2
:01087D002258
:10089E00758920758DFD759850D28E7BFF7A0879FB
:0608AE007E12084680F5F1
:030000000208C92A
:0C08C900787FE4F6D8FD75810C02089ED3
:10080000BB010CE58229F582E5833AF583E02250AD
:1008100006E92582F8E622BBFE06E92582F8E222F7
:0D082000E58229F582E5833AF583E4932211
:1008B400E4FFFE12082D600C0FEF70010E09E970C1
:0508C400F20A80EF22A2
:10082D00BB010689828A83E0225002E722BBFE02C9
:09083D00E32289828A83E49322FC
:00000001FF
