:100D5300444F20414E20544F54204E47484945505C
:100D63000020204B495420383035312056330020A1
:0A0D730076616C75653A2025640076
:040E54000222000076
:100DC600E4FDFCC3ED9FEC9E5015E4FBFA0BBB0063
:0F0DD600010AEB647D4A70F50DBD00010C80E44D
:010DE50022EB
:100DE600E4FDFCC3ED9FEC9E5015E4FBFA0BBB0043
:0F0DF600010AEB64024A70F50DBD00010C80E4A8
:010E050022CA
:030E2200120E06A7
:100E2500D2A47F037E00120DE6C2A47F05020DE663
:100E0600EF139284EFC313139285EF1313543F131A
:0C0E16009286EF131313541F13928722CF
:100E3500A907E9C4540FFF120E22AF01120E0602D4
:020E45000E2578
:100CE800E4FF120E067FC87E00120DC6C2A2C2A380
:100CF800C2A47F03120E22120E25120E257F0212A5
:100D08000E06120E257F2C120E357F80120E357FAF
:0E0D18000C120E357F06120E357F01020E35CD
:100DA400ED7007EF2480F5088005EF24C0F5087F77
:100DB400037E00120DC6AF08120E357F017E0002BD
:020DC4000DC65A
:050E4F007F01020E35D9
:080E4700D2A2120E35C2A22254
:060D26007BFF7A0D7953FA
:100D2C008B088A09890AAB08AA09A90A120B5CFF6D
:100D3C0060143395E0FE120E477401250AF50AE49F
:070D4C003509F50980E022E2
:100C7600120CE8120E4FE4FDFF120DA4120D267D94
:100C860001E4FF120DA47FB87E0B120DC67BFF7A1E
:100C96000D7964120D2C7FD07E07120DC6120E4FF1
:100CA600E4FDFF120DA4120D267D01E4FF120DA432
:100CB600750BFF750C0D750D7285220E85230F7B46
:100CC600007A00792412085C7B007A007924120DE0
:100CD6002C7FE87E03120DC60523E52370C205228C
:020CE60080BECE
:03000000020BEA06
:0C0BEA00787FE4F6D8FD758133020C31F1
:100B5C00BB010689828A83E0225002E722BBFE0297
:090B6C00E32289828A83E49322CA
:10080000E517240BF8E60517227808300702780B65
:10081000E475F001120BB4020B5C2000EB7F2ED2CA
:10082000008018EF540F2490D43440D4FF30040BD0
:10083000EF24BFB41A0050032461FFE518600215CD
:1008400018051BE51B7002051A30070D7808E475C2
:10085000F001120BB4EF020BA2020D7D7403D2075C
:100860008003E4C207F5178B088A09890AE4F518A2
:10087000F51AF51BE51860077F2012083B80F57517
:1008800019FFC201C200C202C203C205C206C208E9
:10089000120809FF700D3007057F0012084CAF1BCE
:1008A000AE1A22B4255FC2D5C204120809FF24D0B3
:1008B000B40A00501A75F00A781830D50508B6FF4A
:1008C0000106C6A426F620D5047002D20380D924DE
:1008D000CFB41A00EF5004C2E5D204020A4CD20190
:1008E00080C6D20080C0D20280BCD2D580BAD205E8
:1008F00080B47F2012083B2002077401B518004025
:10090000F1120800FF12083B020874D208D20680D8
:1009100095120800FB120800FA120800F94A4B7001
:1009200006791D7A0B7BFF20022EE518602A7E00D7
:100930008E82758300120B7560060EEE651970F0DD
:10094000C2D5EBC0E0EAC0E0E9C0E0EE120A93D005
:10095000E0F9D0E0FAD0E0FB120B5CFF60AAEBC03C
:10096000E0EAC0E0E9C0E012083BD0E02401F9D0A1
:10097000E03400FAD0E0FBE5190460DCD519D98039
:10098000877BFF7A0A798FD202809C791080027966
:1009900008C206C2088008D2D5790A8004790AC242
:1009A000D5E519047002F519E4FAFDFEFF120800FE
:1009B000FC7B08200113120800FD7B1030000A1296
:1009C0000800FE120800FF7B20EC3382D592D55040
:1009D00013C3E43000069FFFE49EFEE42001039D64
:1009E000FDE49CFCE4CBF8C201EC700CCFCECDCC86
:1009F000E824F8F870F38017C3EF33FFEE33FEED11
:100A000033FDEC33FCEB33FB994002FB0FD8E9EBF1
:100A1000300105F8D0E0C448B201C0E00AEC4D4E08
:100A20004F78207B0070C2EAB5190040BCC0E012CC
:100A30000A95D0F0D0E0200104C4C0E0C4B201C0E7
:100A4000F0120824D0F0D5F0EB020874120BC409A0
:100A50001153098B5808E24C08DE42098F4F099761
:0F0A60004409974908F743099D550981460981C3
:100A6F00450981470B3D5008E62D08EA2E090D2B4D
:100A7F0008EE23090B200B262A08A64800000905BB
:100A8F003F3F3F00790AA2D5200314300509B91062
:100A9F00020404B9080104A2D52006025001042063
:100AAF0002689202B518005034C0E07F203003195D
:100ABF007F30A20272067205500F120AECC202C2F8
:100ACF0006C205C2087F30800F300503E9C0E0126F
:100ADF00083B300503D0E0F9D0E0B518CC3005174E
:100AEF007F30B9100C12083B7F583004077F788095
:100AFF0003B9080312083B3002057F2D02083B7F24
:100B0F00202008F87F2B2006F322920280CF286E38
:100B1F00756C6C2900D2011208003001F8C20178FF
:100B2F001830D50108F60208A62D5043495812086F
:100B3F00002403B405004001E4900B389312082CF5
:0D0B4F00743A12082CD20375180402098BA9
:100BF600020C76E493A3F8E493A34003F68001F293
:100C060008DFF48029E493A3F85407240CC8C333FF
:100C1600C4540F4420C8834004F456800146F6DFCE
:100C2600E4800B0102040810204080900E54E47EFC
:100C3600019360BCA3FF543F30E509541FFEE493C3
:100C4600A360010ECF54C025E060A840B8E493A38A
:100C5600FAE493A3F8E493A3C8C582C8CAC583CAB5
:100C6600F0A3C8C582C8CAC583CADFE9DEE780BE6D
:010E58000099
:100B7500BB010CE58229F582E5833AF583E0225035
:100B850006E92582F8E622BBFE06E92582F8E2227F
:0D0B9500E58229F582E5833AF583E4932299
:100BA200BB010689828A83F0225002F722BBFE0132
:020BB200F3222C
:100BB400FAE6FB0808E6F925F0F618E6CA3AF62242
:100BC400D083D082F8E4937012740193700DA3A3C0
:100BD40093F8740193F5828883E4737402936860D4
:060BE400EFA3A3A380DFD4
:100D7D00EFB40A07740D120D88740A309811A899F2
:100D8D00B8130CC2983098FDA899C298B811F630D6
:070D9D0099FDC299F59922AE
:00000001FF
