:1008B800202D2D20574152494E47494E47202D2D76
:1008C8000020202042492058414D204E48415020C8
:1008D8002120004E474159204D4F49205655492067
:1008E80056450048452054484F4E4720414E205415
:0408F8004F414E001E
:0B0A6100EF1FAC0670011E4C70F62267
:1009BE00EF1FAC0670011E4C6014758901758CFC1E
:0F09CE00758A18D28C308DFDC28CC28D80E222CA
:100A2500E4FDFCC3ED9FEC9E50070DBD00010C805D
:010A3500F2CE
:010A3600229D
:10099E00E4FDFCC3ED9FEC9E5015E4FBFA0BBB008F
:0F09AE00010AEB647D4A70F50DBD00010C80E479
:0109BD002217
:030A12001209DDE9
:100A1500D2827F037E00120A25C2827F32020A2516
:1009DD00EF139284EFC313139285EF1313543F1348
:0C09ED009286EF131313541F13928722FD
:100A3700AB07EBC4540FFF120A12AF031209DD0212
:020A47000A158E
:0C0A49007F01120A377F0A7E00020A2596
:10087300E4FF1209DD7F147E0012099EC280C2814B
:100883007F03120A127F057E0012099E120A157F4A
:10089300647E00120A25120A157F021209DD120A6C
:1008A300157F28120A377F0C120A377F06120A3780
:0508B3007F01020A377D
:06093400120A49E4FDFF78
:10093A00ED7006EF2480FA8004EF24C0FA7FE87E87
:10094A0003120A25AF02120A377F327E00020A25F5
:080A6C00D280120A37C2802279
:10095A008B0B8A0C890DAB0BAA0CA90D1209F9FF96
:10096A006010120A6C7401250DF50DE4350CF50CB6
:03097A0080E422F4
:03001300020800E0
:10080000C0E0C083C082C0D075D000C001C002C0AB
:1008100003C004C005C006C00730A70D7F647E007A
:10082000120A25C2A4D2A5D2A120A706D2A4C2A58D
:10083000C2A11209347BFF7A0879B812095A7F30B5
:100840007E75120A257D01E4FF12093A7BFF7A08C2
:1008500079C912095A7F307E75120A25D007D00651
:10086000D005D004D003D002D001D0D0D082D08324
:03087000D0E032A3
:10097D0030A70D7F647E00120A61C2A4D2A5D2A158
:10098D0020A70D7F647E00120A61D2A4C2A5C2A168
:01099D002237
:1008FC00D2A1D2A4D2A5C2A675A884C28A120873AA
:10090C0012097D1209347BFF7A0879DB12095A7DB2
:10091C0001E4FF12093A7BFF7A0879EB12095A7F3E
:08092C00E87E031209BE80D829
:03000000020A559C
:0C0A5500787FE4F6D8FD75810D0208FCE6
:1009F900BB010689828A83E0225002E722BBFE02FC
:090A0900E32289828A83E493222E
:00000001FF
