:0C0B8B000A0C4079243019120278001086
:100B5F00C2B1740C2509F8E6F5A07F107E27120BA1
:100B6F0080D2B1C2B0740C250BF8E6F5A07F107ED1
:010B7F00274E
:0B0B8000EF1FAC0670011E4C70F62247
:100AB800E4F516F517AE16AF177C007D0A12088C00
:100AC8008E0A8F0BAE16AF177C007D0A12088C8C2D
:100AD800088D09E4F518F519120B5FD2B00519E570
:100AE8001970020518C3940AE5186480948040E8D8
:100AF8000517E51770020516D39463E5166480940C
:040B08008040B22255
:100B0C00751600751763AE16AF177C007D0A1208B8
:100B1C008C8E0A8F0BAE16AF177C007D0A12088CD8
:100B2C008C088D09E4F518F519120B5FD2B0051974
:100B3C00E51970020518C3940AE518648094804086
:100B4C00E8E517151770021516C3E5166480948036
:030B5C0050B42270
:1009F200E4F516F517AE16AF177C007D0A12088CC7
:100A02008E0A8F0BAE16AF177C007D0A12088C8CF3
:100A1200088D09AE16AF177C007D0212088CED64BA
:100A2200014C701CF518F519120B5FD2B00519E5CF
:100A32001970020518C3940AE5186480948040E88E
:100A42000517E51770020516D39463E516648094C2
:040A52008040A2221C
:100987007B027A00E4F51AF51B900001D3E5829B00
:10099700EA6480F8E583648098501AAF03AE02AD2D
:1009A70082AC8312088CED4C7008051BE51B7002A6
:1009B700051AA380D7E51B6402451A7022FC7D0A3D
:1009C700AF03AE0212088C8E0A8F0B7C007D0AAF34
:1009D70003AE0212088C8C088D09120B5FD2B00B84
:0A09E700BB00010AEB64644A709A39
:0109F10022E3
:100A5600E4F516F517AE16AF177C007D0A12088C62
:100A66008E0A8F0BAE16AF177C007D0A12088C8C8F
:100A7600088D09AE16AF177C007D0312088CED4C6D
:100A8600701CF518F519120B5FD2B00519E519702F
:100A9600020518C3940AE5186480948040E8051797
:100AA600E51770020516D39463E5166480948040BA
:020AB600A42278
:10091700E4F516F517AE16AF177C007D0A12088CA2
:100927008E0A8F0BAE16AF177C007D0A12088C8CCF
:10093700088D09AE16AF177C007D0312088CED4CAD
:10094700702AAE16AF17FC7D0512088CED4C701C93
:10095700F518F519120B5FD2B00519E519700205E4
:1009670018C3940AE5186480948040E80517E517D2
:1009770070020516D39463E516648094804096222E
:0C0B9800D2B1D2B0120987120B7C80F899
:03000000020800F3
:0C080000787FE4F6D8FD75811B020847E4
:10088C00C2D5EC30E709B2D5E4C39DFDE49CFCEE87
:10089C0030E715B2D5E4C39FFFE49EFE1208C2C335
:1008AC00E49DFDE49CFC80031208C230D507C3E430
:0608BC009FFFE49EFE22F6
:10080C00020B98E493A3F8E493A34003F68001F25F
:10081C0008DFF48029E493A3F85407240CC8C333ED
:10082C00C4540F4420C8834004F456800146F6DFBC
:10083C00E4800B0102040810204080900B8BE47EB6
:10084C00019360BCA3FF543F30E509541FFEE493B1
:10085C00A360010ECF54C025E060A840B8E493A378
:10086C00FAE493A3F8E493A3C8C582C8CAC583CAA3
:10087C00F0A3C8C582C8CAC583CADFE9DEE780BE5B
:010B9700005D
:1008C200BC000BBE0029EF8DF084FFADF022E4CC1A
:1008D200F875F008EF2FFFEE33FEEC33FCEE9DECE3
:1008E200984005FCEE9DFE0FD5F0E9E4CEFD22ED29
:1008F200F8F5F0EE8420D21CFEADF075F008EF2F73
:10090200FFED33FD4007985006D5F0F222C398FD63
:050912000FD5F0EA2200
:00000001FF
