:10087000444F20414E20544F54204E474849455044
:100880000020204B49542038303531205633005455
:10089000455354205541525400454D42454444452A
:1008A000442041542049435455005245434549563C
:0408B00045523A0073
:10094100E4FDFCC3ED9FEC9E5015E4FBFA0BBB00EC
:0F095100010AEB647D4A70F50DBD00010C80E4D6
:010960002274
:10096100E4FDFCC3ED9FEC9E5015E4FBFA0BBB00CC
:0F097100010AEB64024A70F50DBD00010C80E431
:010980002254
:0309CE001209818A
:1009D100D2A47F037E00120961C2A47F05020961CE
:10098100EF139284EFC313139285EF1313543F13A4
:0C0991009286EF131313541F1392872259
:1009F400A907E9C4540FFF1209CEAF0112098102FD
:020A040009D116
:1008B400E4FF1209817FC87E00120941C2A2C2A3CB
:1008C400C2A47F031209CE1209D11209D17F0212E8
:1008D40009811209D17F2C1209F47F801209F47F57
:0E08E4000C1209F47F061209F47F010209F4D8
:0608F200120A37E4FDFFCD
:1008F800ED7007EF2480F51E8005EF24C0F51E7FFC
:10090800037E00120941AF1E1209F47F017E000226
:02091800094193
:050A37007F010209F43B
:080A2F00D2A21209F4C2A222B6
:10091A008B1E8A1F8920AB1EAA1FA92012099DFFC0
:10092A0060143395E0FE120A2F74012520F520E4A5
:07093A00351FF51F80E022CC
:1009B600D2CDD2CC75CADC75CBFFD2CAD2AC75B853
:0809C6001075985053877F2241
:0A0A1200750D018F99E50D70FC22AF
:090A1C00E4FF309804C298AF9980
:010A250022AE
:03002300020A26A8
:090A2600309905C299750D0032EA
:1009E10012099DFF600C120A12740129F9E43AFA06
:0309F10080EE2273
:100800001209B61208B41208F27BFF7A0879701246
:10081000091A7D01E4FF1208F87FB87E0B12094126
:100820007BFF7A08798112091A7FD07E071209416D
:100830001208F27BFF7A08798F12091AD2AF7BFF78
:100840007A0879991209E1120A1C8F0CE50C60F7FD
:100850007D01E4FF1208F87BFF7A0879AA12091AD1
:100860007D017F0A1208F8AF0C7E00120A2F80D794
:03000000020A06EB
:0C0A0600787FE4F6D8FD7581200208001E
:10099D00BB010689828A83E0225002E722BBFE0258
:0909AD00E32289828A83E493228B
:00000001FF
