:10138200444F20414E20544F54204E474849455027
:1013920000204B4954203830353120563300444F19
:1013A2002054414E20534F00463D252E32662048A0
:0213B2007A00BF
:10142A00E4FDFCC3ED9FEC9E5015E4FBFA0BBB00F8
:0F143A00010AEB647D4A70F50DBD00010C80E4E2
:011449002280
:10144A00E4FDFCC3ED9FEC9E5015E4FBFA0BBB00D8
:0F145A00010AEB64024A70F50DBD00010C80E43D
:011469002260
:0314A50012148995
:1014A800D2A47F037E0012144AC2A47F0502144A04
:10148900EF139284EFC313139285EF1313543F1391
:0C1499009286EF131313541F1392872246
:1014B800A907E9C4540FFF1214A5AF011214890239
:0214C80014A866
:10134400E4FF1214897FC87E0012142AC2A2C2A329
:10135400C2A47F031214A51214A81214A87F0212A7
:1013640014891214A87F2C1214B87F801214B87F29
:0E1374000C1214B87F061214B87F010214B8D0
:0613B4001214DEE4FDFF4F
:1013BA00ED7007EF2480F53E8005EF24C0F53E7FEF
:1013CA00037E0012142AAF3E1214B87F017E000277
:0213DA00142AD3
:0514DE007F010214B8BB
:0814D600D2A21214B8C2A22236
:1013DC008B3E8A3F8940AB3EAA3FA940120CC8FF06
:1013EC0060143395E0FE1214D674012540F540E4E8
:0713FC00353FF53F80E022C0
:03000B0002146A72
:10146A00C0E0C0D0E52524FFF525E52434FFF524A6
:0F147A00E43523F523E43522F522D0D0D0E0323B
:101235001213441213B47BFF7A1379821213DC7FE5
:10124500E87E0312142A7D01E4FF1213BA7BFF7AAC
:101255001379931213DC7FE87E0312142A1213B458
:101265007BFF7A1379A01213DC758901D2AFD2A95D
:10127500E4F58CF58A20B2FD30B2FDD28C20B2FDAA
:10128500C28CAF8CE48F2DF52CF52BF52AAE2CAD49
:101295002BAC2A7808120D7D8F2D8E2C8D2B8C2A48
:1012A500AF8AE52D4FF52DE52CF52CE52BF52BE536
:1012B5002AF52AE52D2525F52DE52C3524F52CE5F2
:1012C5002B3523F52BE52A3522F52AE4F525F524DA
:1012D500F523F522AF2DAE2CAD2BAC2A7B02FAF906
:1012E500F8120D208F2D8E2C8D2B8C2AE41208A040
:1012F500A804A905AA06AB077F007E247D747C4956
:101305001208038F298E288D278C267541FF75427B
:10131500137543AA8F478E468D458C447B007A0012
:10132500792E120E227D01E4FF1213BA7B007A009A
:0F133500792E1213DC7FF47E0112142A02127536
:1008000002091DEC5D046005E85904700302091338
:100810001208DE580460F6EC4860F2EC7004FDFE4D
:10082000FF22C860DB2481C85009C39860025006CB
:1008300002091A9850CAF582E9294B4A7005AB8221
:1008400002090975F0007C1A7880C3EF9BEE9AEDDF
:1008500099400DC3EF9BFFEE9AFEED99FDE842F043
:10086000DC23ACF0D0E0FFD0E0FED0E0FDAB822096
:10087000E7101BEB60BAEC2CFCEF33FFEE33FEED20
:1008800033FD0208F5E803F830E705C0F075F00025
:10089000EF2FFFEE33FEED33FD40B830E7C280AA04
:1008A00075F020800E75F010800575F0087D007ED3
:1008B000007F003392D530D503120D6FEC3340101A
:1008C000EF33FFEE33FEED33FDEC33FCD5F0ED22DC
:0E08D000E5F0247EA2D513CC92E7CDCEFF2218
:100DC600E5552441F8E6055522783E30070278417C
:100DD600E475F001120D90020CC82000EB7F2ED2B4
:100DE600008018EF540F2490D43440D4FF30040B05
:100DF600EF24BFB41A0050032461FFE556600215C4
:100E0600560559E5597002055830070D783EE475C8
:100E1600F001120D90EF020D0E0214037403D207B7
:100E26008003E4C207F5558B3E8A3F8940E4F556B8
:100E3600F558F559E55660077F20120E0180F575C5
:100E460057FFC201C200C202C203C205C206C208DF
:100E5600120DCFFF700D3007057F00120E12AF592D
:100E6600AE5822B4255FC2D5C204120DCFFF24D0DE
:100E7600B40A00501A75F00A785630D50508B6FF40
:100E86000106C6A426F620D5047002D20380D92412
:100E9600CFB41A00EF5004C2E5D2040210FFD2010B
:100EA60080C6D20080C0D20280BCD2D580BAD2051C
:100EB60080B47F20120E012002077401B55600404F
:100EC600F1120DC6FF120E01020E3AD208D20680AA
:100ED60095120DC6FB120DC6FA120DC6F94A4B70D5
:100EE6000679F67A117BFF20022EE556602A7E00EF
:100EF6008E82758300120CE160060EEE655770F067
:100F0600C2D5EBC0E0EAC0E0E9C0E0EE12115FD066
:100F1600E0F9D0E0FAD0E0FB120CC8FF60AAEBC003
:100F2600E0EAC0E0E9C0E0120E01D0E02401F9D009
:100F3600E03400FAD0E0FBE5570460DCD557D980F1
:100F460087D20280A212114260F7E557700104129F
:100F56000928A957600DE557600914F5571211E9DC
:100F6600EF60F3EA30E702F404C3995077EAF42518
:100F7600570430E701E404F557800D12114260C1B1
:100F8600EA05572557120928EA7854F630E701E4AE
:100F9600255704D557042005011412115FE4C0E05B
:100FA6001211E97854E6601320E70714F6120DE9EA
:100FB600802204F6D0E014C0E07F00120DE9E55768
:100FC6006007120DE01557800B300503120DE0D0B7
:100FD600E0020E3AD0E00480C512114260A0E55747
:100FE600041209287854EAF6E55720050260010440
:050FF600240412115F4C
:100FFB0074FF04C0E01211E9120DE9E55720050258
:10100B006003120DE0D0E0B557E87F45120DF37881
:10101B0054E67F2B30E7047F2DF404C0E0120E0161
:10102B00D0E075F00A84C0F0120DEAD0E0120DEAA0
:10103B00020E3A791080027908C206C2088008D2E3
:10104B00D5790A8004790AC2D5E557047002F557A1
:10105B00E4FAFDFEFF120DC6FC7B08200113120DF6
:10106B00C6FD7B1030000A120DC6FE120DC6FF7BAB
:10107B0020EC3382D592D55013C3E43000069FFF8A
:10108B00E49EFEE42001039DFDE49CFCE4CBF8C24E
:10109B0001EC700CCFCECDCCE824F8F870F38017B0
:1010AB00C3EF33FFEE33FEED33FDEC33FCEB33FBE1
:1010BB00994002FB0FD8E9EB300105F8D0E0C448AA
:1010CB00B201C0E00AEC4D4E4F78207B0070C2EAB3
:1010DB00B5570040BCC0E0121161D0F0D0E0200148
:1010EB0004C4C0E0C4B201C0F0120DEAD0F0D5F0D8
:1010FB00EB020E3A120DA00ED753103E580EA84C11
:10110B000EA44210424F104A44104A490EBD4310E0
:10111B0050550F81460FDF450F4B471216500EAC43
:10112B002D0EB02E0ED32B0EB4230ED12011FF2A71
:10113B000E6C4800000ECBE557B4FF037557061233
:10114B000DC6FC120DC6FD120DC6FE120DC6FF78A4
:10115B004D020957790AA2D5200314300509B9109D
:10116B00020404B9080104A2D52006025001042090
:10117B0002689202B556005034C0E07F203003194C
:10118B007F30A20272067205500F1211B8C202C252
:10119B0006C205C2087F30800F300503E9C0E0129C
:1011AB000E01300503D0E0F9D0E0B556CC30051771
:1011BB007F30B9100C120E017F583004077F7880F6
:1011CB0003B90803120E013002057F2D020E017FB9
:1011DB00202008F87F2B2006F322920280CF7F007D
:1011EB00B407005005244DF8E6FF22286E756C6C91
:1011FB002900D201120DC63001F8C201785630D544
:10120B000108F6020E6C2D50434958120DC62403EB
:10121B00B405004001E490121193120DF2743A12CE
:0A122B000DF2D20375560402103EC6
:1008DE00E9D2E7C933E833F892D5EDD2E7CD33EC60
:0708EE0033FC5002B2D522D9
:1008F500EC30E7100FBF000C0EBE00080DBD000464
:100905000BEB6014A2D5EB13FCED92E7FD2274FF0F
:10091500FCFDFEFF22E480F8A2D574FF13FC7D8068
:03092500E480EF7C
:10092800F920E72824F950037907E4F42402FB1896
:10093800DBFDE624FB5014E9600DE4F618E604F646
:0F094800B40A08E4F6D9F57401F60A22C2D522E2
:10095700ED33EC3392D5FA602AB4FF33EDC2E77B6F
:10096700FF60067A09797CE4227A09798520D50423
:100977007A097980224E614E002B494E46002D4957
:100987004E4600E47A08F608DAFC7B00740722E892
:10099700C0E0ECC0E0EDC0E0EEC0E0EFC0E0EA751B
:1009A700F010A4CAABF075F04DA42BFBE435F0FCB6
:1009B700EA2410FAEB34C5FBEC34D9FCEDC2E7FFAF
:1009C70075F056A4F42411C5F0F434C58FF0A42AA9
:1009D700E5F03BE43CF620E714120C88D0E0FFD0AA
:1009E700E0FED0E0FDD0E0FC1208038014F404120E
:1009F7000C88D0E0FFD0E0FED0E0FDD0E0FC120B89
:100A070052D0E0F8E6FAEDD2E7CD33EC332482FB9F
:100A1700E4C3CF33CFCE33CECD33CD33DBF37B0738
:100A270075F00A846004F6081B0AE5F0F6088FF0F3
:100A3700740AA4FFACF08EF0740AA42CFEACF0503C
:100A4700010C8DF0740AA42CFDE435F0F608DBDE0A
:030A5700740722FF
:100A5A00020913E86480F8E933E83360110460F0AE
:100A6A00ED33EC337009E8FCE9FDEAFEEBFF220402
:100A7A0060DED3EB9FEA9EE99DE8C2E78CF0C2F7FD
:100A8A0095F0400CE8CCF8E9CDF9EACEFAEBCFFBC9
:100A9A001208DE85D0F05804700320D5B3E804703C
:100AAA00075002B2D502091D92D5EC0460F7E4CCD6
:100ABA00C0E0C398F8603B94186008400DD0E0FB92
:100ACA000208F5E4FBFAC9FC8028E830E406E4C928
:100ADA00FBE4CAFCE830E305E4C9CACBFCE85407E6
:100AEA006010F8C3E913F9EA13FAEB13FBEC13FCF1
:100AFA00D8F130F52FC3E49CFCEF9BFFEE9AFEED94
:100B0A0099FDD0E0FBEF4E4D4C701222DB03020937
:100B1A001AEC2CFCEF33FFEE33FEED33FDED30E73C
:100B2A00EB0208F5EF2BFFEE3AFEED39FDD0E0FBC4
:100B3A0050130BBB000302091DED13FDEE13FEEF6C
:080B4A0013FFEC13FC0208F597
:100B5200EC4D6011E8497017ED33EC3304600DE49D
:100B6200FCFFFEFD22E933E8330470F80209131298
:100B720008DE58046009E4CC24815006285009029A
:100B8200091D28400302091AC0E0EB4A7044B980EB
:100B920006D0E0FB020909EF4E701CBD8008EBFF96
:100BA200EAFEE9FD80EBE98DF0A4FEE5F0020C3BE4
:100BB200E9CDF9EAFEEBFFEF89F0A4FCE5F0CE897E
:100BC200F0A42EFFE435F0CD89F0A42DFEE435F03B
:100BD2008067EF4E7005BD80D780C3EF8BF0A4AC69
:100BE200F0EE8BF0A42CFCE435F0F8EF8AF0A42CA4
:100BF200E5F038FCE433CB8DF0A42CFCE5F03BF8B7
:100C0200EE8AF0A42CFCE5F038F8E433CF89F0A4A6
:100C12002CFCE5F038CF3400CE89F0A42FFFE5F0AC
:100C22003EFEE433C98DF0A42EFEE5F039CD8AF004
:100C3200A42FFFE5F03EFEE43DFD33D0E0FB50077C
:100C42000BBB000F02091DEC2CFCEF33FFEE33FE51
:060C5200ED33FD0208F580
:100C58003F8000004120000042C80000447A0000A4
:100C6800461C400047C35000497424004B18968026
:100C78004CBEBC205A0E1BCA6753C21C749DC5AE1D
:100C8800FB60065407601C2323120CB6EB54386033
:100C980009120CA2120CB1120B52ECF8EDF9EEFA93
:100CA800EFCB22EB120CB180F1543803241C900CCA
:100CB80058FE93FC0EEE93FD0EEE930ECE93FF229C
:030000000214CA1D
:0C14CA00787FE4F6D8FD758159021235D8
:100CC800BB010689828A83E0225002E722BBFE022A
:090CD800E32289828A83E493225D
:100CE100BB010CE58229F582E5833AF583E02250C8
:100CF10006E92582F8E622BBFE06E92582F8E22212
:0D0D0100E58229F582E5833AF583E493222B
:100D0E00BB010689828A83F0225002F722BBFE01C4
:020D1E00F322BE
:100D2000E88FF0A4CC8BF0A42CFCE98EF0A42CFC72
:100D30008AF0EDA42CFCEA8EF0A4CDA8F08BF0A4F0
:100D40002DCC3825F0FDE98FF0A42CCD35F0FCEB4F
:100D50008EF0A4FEA9F0EB8FF0A4CFC5F02ECD3914
:0F0D6000FEE43CFCEAA42DCE35F0FDE43CFC2281
:0E0D6F00C3E49FFFE49EFEE49DFDE49CFC2295
:100D7D00E8600FEFC333FFEE33FEED33FDEC33FCD4
:030D8D00D8F12278
:100D9000FAE6FB0808E6F925F0F618E6CA3AF62264
:100DA000D083D082F8E4937012740193700DA3A3E2
:100DB00093F8740193F5828883E4737402936860F6
:060DC000EFA3A3A380DFF6
:10140300EFB40A07740D12140E740A309811A899D8
:10141300B8130CC2983098FDA899C298B811F63049
:0714230099FDC299F5992221
:00000001FF
