:1008C3000A0D407924B0B099120280100508090678
:0308D30047474054
:0B08D700EF1FAC0670011E4C70F622F3
:10088C00758001751709E4F519740D2517F8E6F54F
:10089C00807F887E131208D70519C3E519648094EC
:1008AC009440E61517C3E5176480948050D87F50A8
:0708BC007EC31208D780C9BA
:03000000020800F3
:0C080000787FE4F6D8FD758119020847E6
:10080C0002088CE493A3F8E493A34003F68001F26E
:10081C0008DFF48029E493A3F85407240CC8C333ED
:10082C00C4540F4420C8834004F456800146F6DFBC
:10083C00E4800B01020408102040809008C3E47E81
:10084C00019360BCA3FF543F30E509541FFEE493B1
:10085C00A360010ECF54C025E060A840B8E493A378
:10086C00FAE493A3F8E493A3C8C582C8CAC583CAA3
:10087C00F0A3C8C582C8CAC583CADFE9DEE780BE5B
:0108D6000021
:00000001FF
