:10090C0006147F0808087F00060E7F4949494100FC
:10091C00061A7F404040400006203E4141413E00C7
:10092C00062C3F4038403F0006267F091929460017
:08093C0006087F4141221C0066
:0809AA00C2A3D2A47F647E0009
:1009B200E4FDFCC3ED9FEE6480F8EC648098500780
:0709C2000DBD00010C80ECEB
:0109C900220B
:0509EA00D2A5C2A62207
:0509EF00C2A5D2A62202
:1009CA008F80C2A21209AAC2A47FE87E030209B2DA
:1009DA008F80D2A21209AAC2A47FE87E030209B2BA
:060945007B007A00791A24
:06094B008B328A3389346F
:10095100E4F535F536AB32AA33A9348536828535CF
:100961008312097DFF1209DA0536E5367002053575
:0B097100C39406E5356480948040DAF2
:01097C002258
:10088C001209EA7F3F1209CA1209EF7F3F1209CA07
:10089C001209AE1209EA7FC01209CA1209EF7FC011
:1008AC001209CA1209AE1209EA7FB81209CA7B00F2
:1008BC007A00791412094B7B007A00790E12094BDD
:1008CC001209451209457B007A00792012094B1256
:1008DC0009EF7FBF1209CA7B007A00792C12094BF1
:1008EC007B007A00792012094B7B007A0079261262
:1008FC00094B1209457B007A00790812094B80FEDE
:03000000020800F3
:0C080000787FE4F6D8FD758136020847C9
:10097D00BB010CE58229F582E5833AF583E022502F
:10098D0006E92582F8E622BBFE06E92582F8E22279
:0D099D00E58229F582E5833AF583E4932293
:10080C0002088CE493A3F8E493A34003F68001F26E
:10081C0008DFF48029E493A3F85407240CC8C333ED
:10082C00C4540F4420C8834004F456800146F6DFBC
:10083C00E4800B010204081020408090090CE47E37
:10084C00019360BCA3FF543F30E509541FFEE493B1
:10085C00A360010ECF54C025E060A840B8E493A378
:10086C00FAE493A3F8E493A3C8C582C8CAC583CAA3
:10087C00F0A3C8C582C8CAC583CADFE9DEE780BE5B
:0109440000B2
:00000001FF
