:100003007D0A7C007BE87A03EF1F8E8370011E4517
:1000130083602AED1D8C8370011C458360EAEB1B12
:100023008A8370011A458360EA758902758A9C7513
:0D0033008C9CD28C308DFDC28CC28D80E182
:01004000229D
:100041007D0A7C007BE87A03EF1F8E8370011E45D9
:1000510083602AED1D8C8370011C458360EAEB1BD4
:100061008A8370011A458360EA758902758A597518
:0D0071008C59D28C308DFDC28CC28D80E187
:01007E00225F
:10007F007D0A7C007BE87A03EF1F8E8370011E459B
:10008F0083602AED1D8C8370011C458360EAEB1B96
:10009F008A8370011A458360EA758902758AA4758F
:0D00AF008CA4D28C308DFDC28CC28D80E1FE
:0100BC002221
:1000BD007D0A7C007BE87A03EF1F8E8370011E455D
:1000CD0083602AED1D8C8370011C458360EAEB1B58
:1000DD008A8370011A458360EA758920758B9C753A
:0D00ED008D9CD28E308FFDC28EC28F80E1BF
:0100FA0022E3
:1000FB007D0A7C007BE87A03EF1F8E8370011E451F
:10010B0083602AED1D8C8370011C458360EAEB1B19
:10011B008A8370011A458360EA758920758B59753E
:0D012B008D59D28E308FFDC28EC28F80E1C3
:0101380022A4
:100139007D0A7C007BE87A03EF1F8E8370011E45E0
:1001490083602AED1D8C8370011C458360EAEB1BDB
:100159008A8370011A458360EA758920758BA475B5
:0D0169008DA4D28E308FFDC28EC28F80E13A
:010176002266
:10017700D2A07F057E00120003C2A07F057E001279
:100187000003D2A07F057E00120139C2A07F057E41
:060197000012013980DABC
:0300000002019D5D
:0C019D00787FE4F6D8FD75810702017739
:00000001FF
