:100B2F007F407E1F120B4AD2A7D2A6D2A5D2A4D243
:0B0B3F00A3D2A2D2A1D2A07F287E2367
:0C0B4A00EF4E6007EF1F70F81E80F522D0
:04094000AD07AC064D
:10094400E4FBFAC3EB9DEC6480F8EA648098505EA3
:10095400C2A0120B46C2A1120B46C2A27F407E1F48
:10096400120B4AC2A37F407E1F120B4AC2A47F58B7
:100974007E1B120B4AC2A57F587E1B120B4AC2A6CD
:100984007F707E17120B4AC2A77F887E13120B4A10
:10099400D2A7D2A6D2A5D2A4D2A3D2A2D2A1D2A0A7
:0E09A4007F107E27120B4A0BBB00010A8095C4
:0109B2002222
:040A1700AD07AC0675
:100A1B00E4FBFAC3EB9DEC6480F8EA6480985047E2
:100A2B00C2A7120B46C2A6120B46C2A57F407E1F61
:100A3B00120B4AC2A47F407E1F120B4AC2A37F58DF
:100A4B007E1B120B4AC2A27F587E1B120B4AC2A1FD
:100A5B007F707E17120B4AC2A07F707E17120B336A
:070A6B000BBB00010A80AC87
:010A72002261
:040AB700AD07AC06D5
:100ABB00E4FBFAC3EB9DEC6480F8EA648098502762
:100ACB00C2A3C2A4120B46C2A2C2A5120B46C2A15C
:100ADB00C2A67F407E1F120B4AC2A0C2A7120B2FC9
:070AEB000BBB00010A80CCE7
:010AF20022E1
:040A7300AD07AC0619
:100A7700E4FBFAC3EB9DEC6480F8EA648098502F9E
:100A8700C2A0C2A77F407E1F120B4AC2A1C2A67F87
:100A9700407E1F120B4AC2A2C2A5120B46C2A3C2B6
:0F0AA700A47F287E23120B330BBB00010A80C4EF
:010AB600221D
:04080000AD07AC068E
:10080400E4FBFAC3EB9DEC6480F8EA64809840034F
:100814000208A5C2A07F107E27120B4A120B44C205
:10082400A1120B46D2A17F407E1F120B4AC2A27FA7
:10083400407E1F120B4AD2A27F407E1F120B4AC277
:10084400A37F407E1F120B4AD2A37F587E1B120B3C
:100854004AC2A47F587E1B120B4AD2A47F587E1B27
:10086400120B4AC2A57F587E1B120B4AD2A57F5891
:100874007E1B120B4AC2A67F587E1B120B4AD2A6BD
:100884007F587E1B120B4AC2A77F587E1B120B4A4D
:10089400D2A77F707E17120B4A0BBB00010A020815
:0108A400074C
:0108A5002230
:0408A600AD07AC06E8
:1008AA00E4FBFAC3EB9DEC6480F8EA6480984003A9
:1008BA0002093FC2A77F707E17120B4AD2A77F7028
:1008CA007E17120B4AC2A67F587E1B120B4AD2A66B
:1008DA007F587E1B120B4AC2A57F587E1B120B4AF9
:1008EA00D2A57F587E1B120B4AC2A47F407E1F12DC
:1008FA000B4AD2A47F407E1F120B4AC2A37F407EBE
:10090A001F120B4AD2A37F407E1F120B4AC2A27F3C
:10091A00407E1F120B4AD2A2120B46C2A1120B46EC
:10092A00D2A1120B46C2A0120B46120B440BBB00FB
:05093A00010A0208ADF6
:01093F002295
:040AF300AD07AC0699
:100AF700E4FBFAC3EB9DEC6480F8EA648098502726
:100B0700C2A2C2A0120B46C2A3C2A1120B46C2A622
:100B1700C2A47F407E1F120B4AC2A7C2A5120B2F89
:070B27000BBB00010A80CCAA
:010B2E0022A4
:1009B3007F027E001208007F107E27120B4A7F02FF
:1009C3007E001208A67F107E27120B4A7F037E004B
:1009D3001209407F107E27120B4A7F037E00120A02
:1009E300177F107E27120B4A7F037E00120AB77F00
:1009F300107E27120B4A7F037E00120A737F107E3C
:100A030027120B4A7F027E00120AF37F107E271201
:040A13000B4A809C6E
:03000000020B569A
:0C0B5600787FE4F6D8FD7581070209B332
:00000001FF
