:1009CB000A0840792430191202780010021800002E
:0809B800F8E6F5807FF47E01F2
:0B09C000EF1FAC0670011E4C70F62209
:10080000AB07AA067C277D101209318E1C8F1D7C38
:10081000277D10AF03AE02120931AA04AB057C0399
:100820007DE8AF03AE021209318E128F137C037D77
:10083000E8AF03AE02120931AA04AB057C007D6467
:10084000AF03AE021209318E168F177C007D64AFA4
:1008500003AE02120931AA04AB057C007D0AAF0386
:10086000AE021209318E148F15AE02AF037C007DEB
:100870000A1209318C1A8D1BC2A77408251B120994
:10088000B8D2A7C2A6740825151209B8D2A6C2A567
:10089000740825171209B8D2A5C2A474082513122A
:0508A00009B8D2A422FA
:1009860020B51420B509AF19AE1812080080F40579
:0E09960019E51970020518AF19AE1802080015
:1009A4005389F0438950E4F58BF58DD2B5D28E127C
:0409B400098680FB35
:030000000208A54E
:0C08A500787FE4F6D8FD75811D0208EC98
:10093100BC000BBE0029EF8DF084FFADF022E4CCAA
:10094100F875F008EF2FFFEE33FEEC33FCEE9DEC73
:10095100984005FCEE9DFE0FD5F0E9E4CEFD22EDB9
:10096100F8F5F0EE8420D21CFEADF075F008EF2F03
:10097100FFED33FD4007985006D5F0F222C398FDF4
:050981000FD5F0EA2291
:1008B1000209A4E493A3F8E493A34003F68001F2B0
:1008C10008DFF48029E493A3F85407240CC8C33348
:1008D100C4540F4420C8834004F456800146F6DF17
:1008E100E4800B01020408102040809009CBE47ED3
:1008F100019360BCA3FF543F30E509541FFEE4930C
:10090100A360010ECF54C025E060A840B8E493A3D2
:10091100FAE493A3F8E493A3C8C582C8CAC583CAFD
:10092100F0A3C8C582C8CAC583CADFE9DEE780BEB5
:0109DB00001B
:00000001FF
