:100A57000A08407924301912027800100719BFDFFD
:050A6700EFF7FBFDFEAE
:0B0A6D00EF1FAC0670011E4C70F6225B
:080970008F258E248D238C22BB
:10097800E4F528F529C3E5299527E5266480F8E5F7
:1009880028648098503DE47B0AFAF9F8AF25AE2434
:10099800AD23AC2212083CAF0374122529F8A60730
:1009A800AF25AE24AD23AC22E47B0AFAF9F812088D
:1009B8003C8F258E248D238C220529E52970B605C8
:0309C8002880B2D2
:0109CB002209
:0409CC008E228F23C5
:1009D000E4FBFA900000C3E5829523E5226480F8E9
:1009E000E5836480985023AF8274122FF8E62408C0
:1009F000F8E6F580AF8274192FF8E6F5A07FE87E5F
:100A000003120A6D75A0FFA380CC0BBB00010AEB9B
:050A1000640A4A70BEFB
:010A150022BE
:100A1600E4F520F521AE20AF21EE3395E0FDFC7B19
:100A26003F7A42790F7800D31208CE40E3AE20AF6A
:100A360021EE3395E0FDFC75260075270612097038
:100A46007F067E001209CC0521E52170C8052080AD
:010A5600C4DB
:030000000208E40F
:0C08E400787FE4F6D8FD75812902092B0D
:1008000075F008758200EF2FFFEE33FECD33CDCCAF
:1008100033CCC58233C5829BED9AEC99E582984032
:100820000CF582EE9BFEED9AFDEC99FC0FD5F0D60F
:10083000E4CEFBE4CDFAE4CCF9A88222B800C1B939
:100840000059BA002DEC8BF084CFCECDFCE5F0CB77
:10085000F97818EF2FFFEE33FEED33FDEC33FCEBB0
:1008600033FB10D703994004EB99FB0FD8E5E4F96B
:10087000FA227818EF2FFFEE33FEED33FDEC33FC58
:10088000C933C910D7059BE99A4007EC9BFCE99A4C
:10089000F90FD8E0E4C9FAE4CCFB2275F010EF2F91
:1008A000FFEE33FEED33FDCC33CCC833C810D70791
:1008B0009BEC9AE899400AED9BFDEC9AFCE899F8CC
:0E08C0000FD5F0DAE4CDFBE4CCFAE4C8F9225F
:1008CE00EB9FF5F0EA9E42F0E99D42F0EC6480C8A1
:0608DE0064809845F02241
:1008F000020A16E493A3F8E493A34003F68001F2FE
:1009000008DFF48029E493A3F85407240CC8C33308
:10091000C4540F4420C8834004F456800146F6DFD7
:10092000E4800B0102040810204080900A57E47E06
:10093000019360BCA3FF543F30E509541FFEE493CC
:10094000A360010ECF54C025E060A840B8E493A393
:10095000FAE493A3F8E493A3C8C582C8CAC583CABE
:10096000F0A3C8C582C8CAC583CADFE9DEE780BE76
:010A6C000089
:00000001FF
