:0A0B4A000808FEFDFBF7EFFDBF7F7A
:100B11007F107E27120B27C2A17F107E27120B2781
:060B2100D2A17F107E2727
:0B0B2700EF1FAC0670011E4C70F622A0
:040917008E108F119E
:10091B00E4FBFAC3EB9511E5106480F8EA64809868
:10092B0050599000007C007D02AF82AE8312088C80
:10093B00ED4C700CAF8274082FF8E6F5A0120B2368
:10094B00A3E5826408458370DCE4F583F5827C00C3
:10095B007D02AF82AE8312088CED64014C700CAF3C
:10096B008274082FF8E6F5A0120B23A3E582640826
:0B097B00458370DA0BBB00010A809876
:01098600224E
:100B3200E4FDFCC3ED9FEE6480F8EC6480985007FE
:070B42000DBD00010C80EC69
:010B49002289
:04098700AB07AA060A
:10098B00900000C3E5829BEA6480F8E5836480985D
:10099B00504AC2A0120B23D2A0120B11C2A2120BEF
:1009AB0023D2A2120B23C2A3120B23D2A3120B230B
:1009BB00C2A4120B23D2A4120B23C2A5120B23D257
:1009CB00A5120B23C2A6120B23D2A6120B23C2A76E
:0C09DB00120B23D2A7120B23A302098EDB
:0109E70022ED
:0409E800AB07AA06A9
:1009EC00900000C3E5829BEA6480F8E583648098FC
:1009FC00504AC2A7120B23D2A7120B23C2A6120B6A
:100A0C0023D2A6120B23C2A5120B23D2A5120B23A1
:100A1C00C2A4120B23D2A4120B23C2A3120B23D2F7
:100A2C00A3120B23C2A2120B23D2A2120B11C2A02F
:0C0A3C00120B23D2A0120B23A30209EF1F
:010A4800228B
:040A9300AB07AA06FD
:100A9700900000C3E5829BEA6480F8E58364809850
:100AA7005029D2A7D2A6D2A5D2A4D2A3D2A2D2A18C
:100AB700D2A0120B23C2A7C2A6C2A5C2A4C2A3C2B8
:0B0AC700A2C2A1C2A0120B23A380C892
:010AD2002201
:040A4900AB07AA0647
:100A4D00900000C3E5829BEA6480F8E5836480989A
:100A5D00503375A0E7120B2375A0C3120B2375A09D
:100A6D0081120B23E4F5A0120B2375A0E7120B23C3
:100A7D0075A0DB120B2375A0BD120B2375A07E1282
:050A8D000B23A380BE55
:010A92002241
:100AD300D2A7D2A6D2A5D2A4D2A3D2A2D2A1D2A067
:100AE3007F057E001209177F057E00120A937F039C
:100AF3007E00120987120B237F037E001209E8127E
:0E0B03000B237F037E00120A49120B2380D2BF
:03000000020800F3
:0C080000787FE4F6D8FD758111020847EE
:10088C00C2D5EC30E709B2D5E4C39DFDE49CFCEE87
:10089C0030E715B2D5E4C39FFFE49EFE1208C2C335
:1008AC00E49DFDE49CFC80031208C230D507C3E430
:0608BC009FFFE49EFE22F6
:10080C00020AD3E493A3F8E493A34003F68001F225
:10081C0008DFF48029E493A3F85407240CC8C333ED
:10082C00C4540F4420C8834004F456800146F6DFBC
:10083C00E4800B0102040810204080900B4AE47EF7
:10084C00019360BCA3FF543F30E509541FFEE493B1
:10085C00A360010ECF54C025E060A840B8E493A378
:10086C00FAE493A3F8E493A3C8C582C8CAC583CAA3
:10087C00F0A3C8C582C8CAC583CADFE9DEE780BE5B
:010B540000A0
:1008C200BC000BBE0029EF8DF084FFADF022E4CC1A
:1008D200F875F008EF2FFFEE33FEEC33FCEE9DECE3
:1008E200984005FCEE9DFE0FD5F0E9E4CEFD22ED29
:1008F200F8F5F0EE8420D21CFEADF075F008EF2F73
:10090200FFED33FD4007985006D5F0F222C398FD63
:050912000FD5F0EA2200
:00000001FF
