:0D0108007F107E27120115C2A57F107E27F3
:0B011500EF1FAC0670011E4C70F622BC
:10000300C2A0120111D2A0C2A1120111D2A1C2A297
:10001300120111D2A2C2A3120111D2A3C2A41201CE
:1000230011D2A412010FD2A5C2A6120111D2A6C2E7
:07003300A7120111D2A72260
:10003A00C2A7120111D2A7C2A6120111D2A6120199
:10004A000FD2A5C2A4120111D2A4C2A3120111D2C5
:10005A00A3C2A2120111D2A2C2A1120111D2A1C23B
:07006A00A0120111D2A02237
:10009C00C2A0120111C2A1120111C2A2120111C2FD
:1000AC00A3120111C2A4120108C2A6120111C2A707
:0700BC0012011175A0FF22E3
:1000C300C2A7120111C2A6120108C2A4120111C2D1
:1000D300A3120111C2A2120111C2A1120111C2A0E5
:0700E30012011175A0FF22BC
:10007100C2A0C2A7120111D2A0D2A7C2A1C2A612C8
:100081000111D2A1D2A6C2A212010FD2A2D2A5C23F
:0B009100A3C2A4120111D2A3D2A4222A
:1000EA00C2A0C2A7120111C2A1C2A6120111C2A2C4
:0E00FA0012010FC2A3C2A47F107E27020115BF
:1001200075A0FF12000312003A12009C1200C312C5
:0701300000711200EA80ECEF
:03000000020137C3
:0C013700787FE4F6D8FD758107020120F6
:00000001FF
