:040998000208000051
:040989007F887E13D2
:0B098D00EF1FAC0670011E4C70F6223C
:10092100AB07AA06EB1BAE0270011A4E6059C280DA
:100931007FD07E0712098DC2817FC47E0912098D85
:10094100C2827FB87E0B12098DC2837FAC7E0D12ED
:10095100098DC2847FA07E0F12098DC2857F947E8E
:100961001112098DC286120989C2877F7C7E1512F8
:10097100098DD287D286D285D284D283D282D28186
:08098100D280120989809D2239
:100800007B017A00120989C2A07FD07E0712098D70
:10081000C2A17FC47E0912098DC2A27FB87E0B12CD
:10082000098DC2A37FAC7E0D12098DC2A47FA07E6C
:100830000F12098DC2A57F947E1112098DC2A612D6
:100840000989C2A77F7C7E1512098DD2A7D2A6D2B4
:10085000A5D2A4D2A3D2A2D2A1D2A02091167FC8A1
:100860007E0012098D2091050BBB00010AEB4A7036
:1008700003FA7B01EB64024A700A1208007FE87EEB
:100880000302098DD2A7D2A6D2A5D2A4D2A3D2A206
:04089000D2A1D2A07F
:010894002241
:02099D0080FEDA
:030000000208955E
:0C089500787FE4F6D8FD75810B0208DCCA
:1008A10002099DE493A3F8E493A34003F68001F2C7
:1008B10008DFF48029E493A3F85407240CC8C33358
:1008C100C4540F4420C8834004F456800146F6DF27
:1008D100E4800B0102040810204080900998E47E16
:1008E100019360BCA3FF543F30E509541FFEE4931C
:1008F100A360010ECF54C025E060A840B8E493A3E3
:10090100FAE493A3F8E493A3C8C582C8CAC583CA0D
:10091100F0A3C8C582C8CAC583CADFE9DEE780BEC5
:01099C00005A
:00000001FF
