:100888002068656C6C6F00206368616F206361632A
:100898002062616E00204B544D54204B3139410089
:1008A800474F4F4442594520574F524C4421004C22
:1008B8004150205452494E48204E48554E47004812
:1008C800452054484F4E4720494F540048454C4C0A
:0808D8004F20574F524C440021
:1009FB00E4FDFCC3ED9FEC9E50070DBD00010C8088
:010A0B00F2F8
:010A0C0022C7
:040925007FE87E03E6
:040929008E088F099C
:10092D00E4FFFEC3EF9DEE9C5015E4FCFD0DBD00F4
:0F093D00010CED647D4C70F50FBF00010E80E4DE
:01094C002288
:0B0A3700EF1FAC0670011E4C70F62291
:10099400EF1FAC0670011E4C6014758901758CFC48
:0F09A400758A18D28C308DFDC28CC28D80E222F4
:0309E8001209B33E
:1009EB00D2A27F037E001209FBC2A27F320209FB57
:1009B300EF1392A4EFC3131392A5EF1313543F1332
:0C09C30092A6EF131313541F1392A722E7
:100A0D00AB07EBC4540FFF1209E8AF031209B30291
:020A1D0009EBE3
:0C0A1F007F01120A0D7F0A7E000209FB15
:1008E0007F011209B37F147E00120929C2A0C2A1A0
:1008F0007F031209E87F057E001209291209EB7FA8
:10090000647E001209FB1209EB7F021209B312097F
:10091000EB7F28120A0D7F0C120A0D7F06120A0DBA
:050920007F01020A0D39
:04094D007D01E4FF45
:10095100ED7006EF2480FA8004EF24C0FA7FE87E70
:10096100031209FBAF02120A0D7FE87E030209FBA5
:080A4200D2A0120A0DC2A0228D
:100971008B088A09890AAB08AA09A90A1209CFFFBB
:100981006010120A427401250AF50AE43509F509D5
:0309910080E422DD
:100800001208E07BFF7A0879881209711209251213
:100810000A1FE4FDFF1209517BFF7A08798F120944
:100820007112092512094D7BFF7A08799D12097111
:1008300012092512094D7BFF7A0879A81209711255
:100840000A1F7FA07E86120929E4FDFF1209517B51
:10085000FF7A0879B71209717FA07E8612092912E2
:10086000094D7BFF7A0879C7120971120A1F7FE8C8
:100870007E031209947BFF7A0879D41209717FB83C
:080880007E0B1209940208002E
:03000000020A2BC6
:0C0A2B00787FE4F6D8FD75810A0208000F
:1009CF00BB010689828A83E0225002E722BBFE0226
:0909DF00E32289828A83E4932259
:00000001FF
