:1000C4000A0A40792430191202780010020800004C
:0B00D500EF1FAC0670011E4C70F622FD
:10008F0053890F438905E4F58CF58AD28C7580016D
:10009F00AF8CEFAD8AF508EDF509240AF8E6F58087
:1000AF007F107E271200D5E509640A450870E1F537
:0500BF0008F50980DBDB
:03000000020003F8
:0C000300787FE4F6D8FD75811302004AF6
:10000F0002008FE493A3F8E493A34003F68001F278
:10001F0008DFF48029E493A3F85407240CC8C333F2
:10002F00C4540F4420C8834004F456800146F6DFC1
:10003F00E4800B01020408102040809000C4E47E8D
:10004F00019360BCA3FF543F30E509541FFEE493B6
:10005F00A360010ECF54C025E060A840B8E493A37D
:10006F00FAE493A3F8E493A3C8C582C8CAC583CAA8
:10007F00F0A3C8C582C8CAC583CADFE9DEE780BE60
:0100D400002B
:00000001FF
