:10000300EF1FAC0670011E4C6014758910758DFCD2
:0F001300758B18D28E308FFDC28EC28F80E22285
:10002200EF1FAC0670011E4C6014758910758D9F10
:0F003200758B7ED28E308FFDC28EC28F80E22200
:10004100EF1FAC0670011E4C6014758910758DFC94
:0F005100758B67D28E308FFDC28EC28F80E222F8
:1000600075A0FC7FB87E0B12000375A0017FB87EDF
:060070000B12000380EA00
:0300000002007685
:0C007600787FE4F6D8FD75810702006079
:00000001FF
